:100000005FC06CC06BC06AC069C068C067C066C0B2
:1000100065C064C063C062C061C060C05FC05EC0D4
:10002000E0C15CC05BC0546F67676C650053656E70
:10003000646500566572626F0052657374005065A6
:10004000203D00496E70203D00457267203D004E06
:1000500065772000436865636B000D6D6132333155
:10006000332E632020446563203130203230323417
:100070002030393A35363A353420667265650041AC
:1000800075746F00555349535200555349445200FB
:10009000555349435200496E702020004F7574201B
:1000A00020005542525220004F43523141004F43ED
:1000B0005231420049435231200054434E543100E2
:1000C00011241FBECFEDCDBF20E0A0E6B0E001C0FF
:1000D0001D92AD36B207E1F7CCD265C391CF82E174
:1000E00089B912B888E18AB986E083B908955F9B1F
:1000F00002C08CB1089580E008955D9BFECF8CB95D
:100100000895AF92BF92DF92EF92FF920F931F93E9
:10011000CF93DF938C01892B59F480E3DF91CF914A
:100120001F910F91FF90EF90DF90BF90AF90E5CFC0
:1001300085E0E82EF12CDD24D394C0E1D7E29AE0EB
:10014000A92EB12CC801BE01F8D2862FDD2031F0D6
:10015000662331F0805DD1DFD12C02C0805DCDDF20
:10016000C801BE01EAD28C01CE01B501E6D2EB0195
:1001700081E0E81AF10831F7DF91CF911F910F91DB
:10018000FF90EF90DF90BF90AF9008954F925F92F5
:100190006F927F928F929F92AF92BF92CF92DF9297
:1001A000EF92FF921F93CF93DF934B015C01C9E065
:1001B000D0E011E0C12C81EED82E85EFE82E85E04D
:1001C000F82E9AE0492E512C612C712CC501B401F6
:1001D000A7019601C6D2822F112331F0222331F0DC
:1001E000805D8BDF10E002C0805D87DFC501B40158
:1001F000A7019601B6D24B015C01C701B601A3016C
:100200009201AFD269017A01219701F7DF91CF9175
:100210001F91FF90EF90DF90CF90BF90AF909F9095
:100220008F907F906F905F904F9008950F931F93E2
:10023000CF938C01C0E0F801EC0FF11D8081882381
:1002400019F05BDFCF5FF7CFCF911F910F9108952A
:100250000F931F93CF93DF938C01D0E0F801ED0F44
:10026000F11DC4918C2F49DFDF5FC111F7CFDF9102
:10027000CF911F910F910895CF93DF93EB01E8DFAA
:1002800080E23BDFCE013DDF8DE0DF91CF9135CFC6
:10029000CF93DF93CDB7DD27C450CDBF49835A83B9
:1002A0006B837C83D5DF80E228DF49815A816B81B3
:1002B0007C81CB01BA016ADF8DE0CC5FCDBFDF91DD
:1002C000CF911BCF009741F0EBE2F1E03197F1F7CE
:1002D00000C000000197F6CF0895009751F05F9994
:1002E0000AC0EBE2F1E03197F1F700C0000001979E
:1002F000F4CF80E0089581E0089590E59FBD886087
:100300008EBD1DBC1CBC8FE097E29BBD8ABD85E005
:1003100090E099BD88BD089589B162B170E0762FF3
:100320006627680F711D82EA90E0A6DF6AB57BB58B
:1003300088EA90E0A1DF68B579B58EEA90E09CDFAD
:1003400064B575B584EB90E097DF6CB57DB58AEB4D
:1003500090E092CFBE9ABD98C59A88E18DB91FB83A
:10036000769A0895BF9AF6CFBF98C79AF3CF909127
:10037000640080916300981791F0E0916300F0E0D1
:10038000E959FF4F8081909163009F5F90936300D4
:1003900090916300953020F01092630008958AE2F6
:1003A00008958FB9769A769907C08DB183608DB91B
:1003B00080E18A95F1F7F7CFE0916400F0E08FB12A
:1003C000E959FF4F808380E48EB9809164008F5F8C
:1003D0008093640080916400853010F01092640076
:1003E00008951F920F920FB60F9211248F93EF93DF
:1003F000FF93E0916400F0E08FB1E959FF4F8083F3
:1004000080E48EB9809164008F5F80936400809156
:100410006400853010F010926400FF91EF918F918D
:100420000F900FBE0F901F9018956EB170E084E88A
:1004300090E022DF6FB170E08AE890E01DDF6DB1DF
:1004400070E080E990E018CF6091640070E086E988
:1004500090E012DF6091630070E08CE990E00CDFC7
:100460006FB170E08AE890E007CF80936200882344
:1004700011F08EE301C08DE040CE009741F0E7EB34
:10048000FBE03197F1F700C000000197F6CF089527
:10049000CF93DF93C6E083E284DF81E090E0EDDF7D
:1004A00066DFD82F8F7729DED33219F4C15099F740
:1004B00004C0DA3211F0C5E0EECFDF91CF9108959C
:1004C00081E46FDF85E090E0D8DF80E36ADF85E0DC
:1004D00090E0D3DF84E665DF85E090E0CEDF81E366
:1004E00060DF85E090E0C9DF85E65BDF85E090E0D6
:1004F000C4DFCECFCF93C82F00DEC83061F4809127
:100500006500909166006AE070E017D17093660014
:100510006093650099C080ED8C0F8A30D8F480918B
:100520006C002C2F30E0882359F080916500909169
:1005300066006AE070E0F0D0C097280F391F05C050
:1005400081E080936C002053310930936600209342
:1005500065007AC088E0D1DD10926C00C43709F4E0
:100560005AC0D8F4C236E9F168F4C33209F446C07F
:10057000C13609F063C080916500909166009BBD13
:100580008ABD35C0CB36A9F1C237D1F1C33609F0E7
:1005900055C080916500B1DE2AC0C83709F446C055
:1005A00080F4C53709F440C0C63709F047C06091F0
:1005B000610081E068276093610070E083E390E070
:1005C0003BC0C43EB1F0CC3FB9F0C937B9F560913A
:1005D000600081E068276093600070E08FE790E042
:1005E0002BC0809165009091660099BD88BDCF9128
:1005F00093CE80E0CF9139CFCF9162CFCF9148CFCA
:1006000060916500709166008DE290E035DE80912A
:100610006500CF91C6CE8DB183608DB96EB1607427
:1006200070E086E290E028DECF91FFCE6091650019
:100630007091660083E490E0CF911ECE8C2F90E005
:1006400060DD8FE3CF9159CDCF910895BC9ABB9ACD
:100650008D98959A8C98949A42DD6DB770E06D569E
:1006600070408AE590E008DE81E047DE7BDE78942A
:100670000895ECDF3CDDC82F882351F180916200A2
:10068000882349F08C2F36DF80916200882301F1A6
:100690008EE333DD1DC0C43E41F0CC3F49F0CD3088
:1006A00049F4F6DE8DE029DD07C081E0DEDE04C01E
:1006B00007DF02C08C2F75DE80916000882341F037
:1006C000C93629F0C03719F0C757C23008F4E0DE48
:1006D0009091640080916300981719F048DE8F773D
:1006E0000CDD85990BC081E0C0DE2FEF82E597E03D
:1006F000215080409040E1F700C000008499BACFBB
:1007000080E0B3DE2FEF82E597E0215080409040FB
:10071000E1F700C00000AECF0024552704C0080E4A
:10072000591F880F991F009729F076956795B8F3A0
:100730007105B9F7802D952F0895AA1BBB1B51E1B8
:1007400007C0AA1FBB1FA617B70710F0A61BB70B41
:10075000881F991F5A95A9F780959095BC01CD01E6
:100760000895A1E21A2EAA1BBB1BFD010DC0AA1FF2
:10077000BB1FEE1FFF1FA217B307E407F50720F00A
:10078000A21BB30BE40BF50B661F771F881F991F85
:100790001A9469F760957095809590959B01AC01CE
:0A07A000BD01CF010895F894FFCFCA
:00000001FF
