:1000000059C071C070C06FC06EC06DC06CC06BC095
:100010006AC069C068C067C066C065C064C063C0AC
:1000200062C061C060C05FC05EC01B5B481B5B4AB2
:100030002052656164792E0D0057616974206973DF
:1000400000566572626F20697300736574005374A3
:100050006F707065640072756E6E696E67005072C5
:100060006F670074776F2070756C736500736574CB
:10007000204C6F0D000D666C6970646F74204465D0
:100080006320203720323032342031353A30313A53
:100090003036007365742048690D00456E61626CEE
:1000A00065640044697361626C65640D0044617548
:1000B0006572000011241FBECFEDCDBF10E0A0E699
:1000C000B0E0EAE1F6E002C005900D92A836B10773
:1000D000D9F720E0A8E6B0E001C01D92A037B20732
:1000E000E1F740D298C28CCF8CE089B912B888E190
:1000F0008AB986E083B908955F9B02C08CB10895E8
:1001000080E008955D9BFECF8CB90895AF92BF92B9
:10011000DF92EF92FF920F931F93CF93DF938C01A7
:10012000892B59F480E3DF91CF911F910F91FF90BC
:10013000EF90DF90BF90AF90E5CF85E0E82EF12CF7
:10014000DD24D394C0E1D7E29AE0A92EB12CC801F6
:10015000BE012BD2862FDD2031F0662331F0805D89
:10016000D1DFD12C02C0805DCDDFC801BE011DD220
:100170008C01CE01B50119D2EB0181E0E81AF1083A
:1001800031F7DF91CF911F910F91FF90EF90DF90AA
:10019000BF90AF9008954F925F926F927F928F922F
:1001A0009F92AF92BF92CF92DF92EF92FF921F93F6
:1001B000CF93DF934B015C01C9E0D0E011E0C12C8B
:1001C00081EED82E85EFE82E85E0F82E9AE0492EB4
:1001D000512C612C712CC501B401A7019601F9D1F4
:1001E000822F112331F0222331F0805D8BDF10E06C
:1001F00002C0805D87DFC501B401A7019601E9D186
:100200004B015C01C701B601A3019201E2D1690172
:100210007A01219701F7DF91CF911F91FF90EF9025
:10022000DF90CF90BF90AF909F908F907F906F9016
:100230005F904F9008950F931F93CF938C01C0E070
:10024000F801EC0FF11D8081882319F05BDFCF5F8F
:10025000F7CFCF911F910F9108950F931F93CF93D5
:10026000DF938C01D0E0F801ED0FF11DC4918C2FCC
:1002700049DFDF5FC111F7CFDF91CF911F910F9160
:100280000895CF93DF93EB01E8DF80E23BDFCE01FF
:100290003DDF8DE0DF91CF9135CFCF93DF93CDB7A9
:1002A000DD27C450CDBF49835A836B837C83D5DF60
:1002B00080E228DF49815A816B817C81CB01BA01C0
:1002C0006ADF8DE0CC5FCDBFDF91CF911BCF009770
:1002D00041F0E7ECF0E03197F1F700C00000019742
:1002E000F6CF0895009751F05F990AC0E7ECF0E06F
:1002F0003197F1F700C000000197F4CF80E0089536
:1003000081E00895969A8091620090916300DFDF0A
:10031000969808959498959A08959598949A089522
:10032000FCDFF0DFF7DFEECF80916C00880F09F47F
:1003300081E080936C0080916C0088BBF1DF80913C
:100340006A00882331F060916C0070E08EE590E0E7
:1003500098DF8091600090916100C4DF80916C0013
:10036000089580916B00880F09F481E080936B0001
:1003700080916B0088BBD4DF80916A00882331F0C4
:1003800060916B0070E08EE590E07BDF8091600013
:1003900090916100A7DF80916B000895CF93C82FE3
:1003A000B1DEC83061F480916D0090916E006AE01A
:1003B00070E0FBD070936E0060936D00BCC080ED68
:1003C0008C0F8A30D8F480916F002C2F30E0882376
:1003D00059F080916D0090916E006AE070E0D4D089
:1003E000C097280F391F05C081E080936F0020530C
:1003F000310930936E0020936D009DC088E082DE4D
:1004000010926F00C83609F44AC0B0F4C53409F43C
:1004100042C050F4CD3049F1C03209F087C060E0ED
:1004200070E08EE490E02EC0C43671F1C63601F162
:10043000C13609F07BC01CC0C33709F448C058F46A
:10044000CF3689F1C037E9F1CC3609F06FC065DFEE
:100450008DE690E01EC0C73709F453C0C83709F4D1
:100460005BC0C63709F062C03CC08AE290E011C0B0
:1004700060916D0070916E007093630060936200F4
:100480008DEA90E0CF91FDCE96989498959883EA66
:1004900090E0CF91E2CE969A8BE990E0FACF3ADFE6
:1004A00083E990E0F6CF80916D0088BB39DF8091C1
:1004B0006A00882309F43FC066B370E083E690E0E9
:1004C000E1CF20DF6091620070916300D9CF80910D
:1004D0006D0088BB60916D0070916E008AE490E0C1
:1004E000D1CF80916A00882319F010926A0003C06E
:1004F00081E080936A0060916A0070E081E490E09E
:10050000C1CF60916D0070916E0070936100609337
:10051000600089E390E0B6CF60916D0070916E004D
:1005200060936800772786E590E0ACCF8C2FEADDFA
:100530008FE3CF91E7CDCF9108958FEF87BB18BAA6
:100540008E9A96988E9A96988C9A94988D9A959859
:100550008B98939AC9DD6DB770E085E790E091DEE6
:1005600078940895EADFC8DD882319F010926800B6
:1005700015DF809168008823B1F3813011F4D4DE57
:10058000F2CF10926800EFCF0024552704C0080E68
:10059000591F880F991F009729F076956795B8F332
:1005A0007105B9F7802D952F0895AA1BBB1B51E14A
:1005B00007C0AA1FBB1FA617B70710F0A61BB70BD3
:1005C000881F991F5A95A9F780959095BC01CD0178
:1005D0000895A1E21A2EAA1BBB1BFD010DC0AA1F84
:1005E000BB1FEE1FFF1FA217B307E407F50720F09C
:1005F000A21BB30BE40BF50B661F771F881F991F17
:100600001A9469F760957095809590959B01AC015F
:0A061000BD01CF010895F894FFCF5B
:08061A00881314000305040617
:00000001FF
